:060000000A128A110E280D
:10000800FE00030EF1000408F2000A08F3000A12C9
:100018008A11912B0A128A1111280A128A11B925FC
:100028000A128A11F90083134F30840064300A12CF
:100038008A11AB250A128A11F701F80183010A1205
:100048008A11B52983120313B3002830AA002A089D
:10005800AE009E2925303606031933283428402857
:100068003608AA00330884002A0883138000013068
:10007800AA002A08B3079E29B401B501AF0149288F
:100088002F150130AA002A08A707270884000A129A
:100098008A11CB240A128A11AA00AB012B08003A54
:1000A800031957285C282A08303A031944285C2881
:1000B800270884000A128A11CB240A128A110A120C
:1000C8008A1199250A128A11031C6B286C28AC28FE
:1000D80083120313B401B5010A3083120313A0007D
:1000E8000030A1003508A3003408A2000A128A11C2
:1000F80026250A128A11831203132108B500200845
:10010800B400270884000A128A11CB240A128A1123
:10011800D03EAA00FF3003180030AB002A08B4070D
:100128000318B50A2B08B5070130AA002A08A70743
:10013800270884000A128A11CB240A128A110A128B
:100148008A1199250A128A110318AB28AC2870283D
:10015800013083120313A707FF30270784000A1210
:100168008A11CB240A128A11B600AA00AB012B0807
:10017800003A0319C0289E292A08003A0319B02911
:10018800583A0319CB28203A0319CB289E292E0860
:10019800840083130008B000840A0008B10002300C
:1001A800AA002A08AE07B601B60A3608AA002A0726
:1001B800013E84000A128A11CB240A128A11AB006C
:1001C8000A128A11CB240A128A11AC002C083102B7
:1001D800031DF0282B0830020318F328F428F5280B
:1001E800FF280130AA002A08B60704303606031D86
:1001F800FE28FF28D9283508803A803C031D0629A7
:1002080034083602031809290A2916298312031308
:100218003608AA00AB012A08B4022B08031CB50350
:10022800B5021A2983120313B401B5012F1D1D2924
:100238001E293C293408350403192329242959295E
:100248003030AA00330884002A0883138000013064
:10025800AA002A08B307FF30B4070318B50AFF300D
:10026800B50734083504031D3A293B29242959299F
:100278003408350403194129422959292030AA0094
:10028800330884002A08831380000130AA002A0852
:10029800B307FF30B4070318B50AFF30B5073408B1
:1002A8003504031D5829592942293608AA002A0865
:1002B800B20095293208AA002A07013E84000A12D2
:1002C8008A11CB240A128A11A0000A128A11CB249F
:1002D8000A128A11A1003108A3003008A2000A12EC
:1002E8008A1136240A128A118312031320080F393F
:1002F800AB002B08AD002D08093E84000A128A11B4
:10030800CB240A128A11AA002A08B6003608AA00C5
:10031800330884002A08831380000130AA002A08C1
:10032800B307FF30AA002A08B207320A031D9D2925
:100338009E295E290130A707FF30270784000A128B
:100348008A11CB240A128A11AA002A08B600360894
:10035800031DAF29B0292E28330884008313800198
:1003680008008B138316031387018601880189010E
:10037800D830831203138F00F0308E0083160313D6
:100388000C14831203131014831603131815333037
:100398009900181283120313981718131816831646
:1003A800031398160B178C160C12F03083120313D4
:1003B80097058B17033083160313850084309F003D
:1003C800831203131F08C73908389F001F083F39D5
:1003D80040389F001F14871007110A128A113B2307
:1003E8000A128A11063083120313B9001330B800B9
:1003F800AD30B700B70BFE29B80BFE29B90BFE29A3
:100408001A3083120313A1008030A2000A128A1145
:100418007C240A128A110830831203134F02031C2A
:10042800162A172A0F2A2630A1008030A2000A12A5
:100438008A117C240A128A1183120313CE012130F7
:10044800B7003708A7004E08503E84008313000801
:10045800B800B9013808A8003908A9003A300A12CA
:100468008A1126200A128A113A3083120313A10036
:100478000030A2000A128A117C240A128A11013063
:1004880083120313B7003708CE0708304E02031C47
:100498004E2A4F2A232ACF015003031D542A552AD6
:1004A8000F2A2B2B5708B700B8013708CA0038089D
:1004B800CB0008300310CA0DCB0DFF3E031D5E2A8A
:1004C8005608B700B8013708CA070318CB0A380816
:1004D800CB075030B7003708F40006300A128A11EB
:1004E800E7230A128A11750883120313CD007408D2
:1004F800CC004D084B06031D832A4C084A06031DF1
:10050800862A872A0F2A5208031D8B2A8C2ABF2A7B
:1005180009305306031D912A922ABF2A540A031D43
:10052800962A972A9D2A5508031D9B2A9C2A9D2AAC
:1005380007155408031DA12AA22AA82A5508031D35
:10054800A62AA72AA82A0711823083120313B80003
:10055800DD30B700B70BAE2AB80BAE2A5030831285
:100568000313B7003708F40008300A128A11F82478
:100578000A128A110F2A5208031DC32AC42AF72A0D
:100588000A305306031DC92ACA2AF72A540A031D2A
:10059800CE2ACF2AD52A5508031DD32AD42AD52AEC
:1005A80007145408031DD92ADA2AE02A5508031D1E
:1005B800DE2ADF2AE02A0710823083120313B800EC
:1005C800DD30B700B70BE62AB80BE62A50308312A5
:1005D8000313B7003708F40008300A128A11F82408
:1005E8000A128A110F2AD1170230B7003708D20031
:1005F8005030B7003708F40003300A128A11E72395
:100608000A128A11750883120313CD007408CC00EE
:100618004C08B7003708D3004D08B7003708D40096
:10062800823083120313B800DD30B700B70B1A2BE2
:10063800B80B1A2B503083120313B7003708F40095
:1006480005300A128A11F8240A128A110F2A510851
:10065800B700B8013808003A0319332B0F2A3708B6
:10066800053A0319562A0F2A0A128A110E288312EC
:10067800031389100911343083120313A200F130D7
:10068800A100A10B452BA20B452B83120313891440
:1006980038300A128A1173250A128A110D30831212
:1006A8000313A200FB30A100A10B582BA20B582B5F
:1006B80038300A128A1173250A128A1103308312FC
:1006C8000313A2009730A100A10B682BA20B682B83
:1006D80038300A128A1173250A128A1108300A1250
:1006E8008A1173250A128A110F300A128A1173258A
:1006F8000A128A1101300A128A1173250A128A1104
:1007080038300A128A1173250A128A1180300A12A7
:100718008A1173250A128A110800831603130C1C08
:10072800962B972BAE2B831203130C1C9C2B9D2B03
:10073800AE2B0C10D8308F00F0308E0079080319DA
:10074800A62BA72BAA2B0130F902AE2B6430F000A0
:100758007008F90083128C1EB22BB32BDE2B831684
:1007680003138C1EB82BB92BDE2B83120313981896
:10077800BE2BBF2BC32B181DC22BC32BCC2B18127F
:100788000630F000F00BC62B000083120313181676
:1007980014304F020318D12BD22BDE2B1A08F0008D
:1007A8004F08503E84007008831380000130F00029
:1007B8007008CF0773088A0072088400710E8300DE
:1007C800FE0E7E0E090083120313A200FF30A5005F
:1007D800FF30A600A3012B2C23087407A0002008D3
:1007E8008400250883130006A5002608A600A40196
:1007F8002518FF2B002C0C2C2608A1002508A0008A
:100808000310A10CA00C2008A5002108A6001D2C8F
:100818002608A1002508A0000310A10CA00C2008A0
:10082800A5002108A60001302506A500A03026064F
:10083800A6000130A0002008A40708302402031CE9
:10084800262C272CFC2B0130A0002008A307220807
:100858002302031C302C312CF02B2608F500250828
:10086800F400080083120313A501A601200821043F
:1008780003193F2C402C772CA401A40A4E2C0130DC
:100888000310A00DA10DFF3E031D442C0130F40000
:100898007408A407A11F512C522C432C01300310BB
:1008A800A50DA60DFF3E031D532C21082302031D91
:1008B8005F2C20082202031C622C632C6A2C20085F
:1008C800A2022108031CA303A3022514013003106C
:1008D800A10CA00CFF3E031D6B2C0130A402031DCC
:1008E800762C772C522C2608A1002508A000080099
:1008F80083120313A401AF2C2408210784002208C3
:100908000318220AFF000A128A11C1240A128A1146
:100918000C3A031D902C912C982C01300A128A1144
:1009280073250A128A11A92C240821078400220899
:100938000318220AFF000A128A11C1240A128A1116
:100948000A128A114D250A128A11013083120313E3
:10095800A3002308A40724082107840022080318F9
:10096800220AFF000A128A11C1240A128A11003AC7
:10097800031DBF2CC02C802C0800FF1BCB2C83131D
:100988007F1883170008840A0319FF0A0800043037
:100998008A000408840A82070034013400341034C1
:1009A80000340034013400341034303431343234FB
:1009B80033343434353436343734383439344134D4
:1009C8004234433444344534463400342034743497
:1009D8006534733474346534003425343034323437
:1009E800583400340C34003483120313A0008316E7
:1009F8000313981C002D012DFB2C83120313A10156
:100A0800192D83160313981C0A2D0B2D052D8312FF
:100A1800031321087407F500750884008313000880
:100A280099000130F5007508A10720082102031C70
:100A38001E2D1F2D052D83160313981C242D252DDF
:100A48001F2D0800F401F50183120313201C2D2D1E
:100A58002E2D342D2208F4070318F50A2308F5076C
:100A680001300310A20DA30DFF3E031D352D0130EB
:100A78000310A10CA00CFF3E031D3C2D20082104EF
:100A8800031D472D482D282D7508A1007408A000C6
:100A9800080083120313A000891420080A128A117F
:100AA800B3250A128A118312031309150830F600B8
:100AB800C930F500F50B5E2DF60B5E2D632D831204
:100AC800031389100830F600C930F500F50B6A2DBC
:100AD800F60B6A2D6F2D83120313891408008312F5
:100AE8000313A000891420080A128A11B3250A12D8
:100AF8008A118312031309110830F600C930F50072
:100B0800F50B842DF60B842D892D83120313891080
:100B18000830F600C930F500F50B902DF60B902D36
:100B2800952D8312031389140800F500F4013A3057
:100B380075020318A02DA12DA92D30307502031CB4
:100B4800A62DA72DA92DF401F40A740C0800640041
:100B58008001840A0406031900340406AC2DF4004D
:0C0B680074088312031388000800643432
:02400E00323F3F
:00000001FF
